:10000000FDC0000011C100000FC100000DC10000C3
:100010000BC1000009C1000007C1000005C10000BC
:1000200003C1000001C10000FFC00000FDC00000CE
:10003000FBC00000F9C00000F7C00000F5C00000E0
:10004000DFC40000ECC40000F9C4000006C50000D5
:10005000EBC00000E9C00000E7C00000E5C0000000
:10006000E3C0000063C50000DFC00000DDC0000089
:10007000DBC00000D9C00000D7C00000D5C0000020
:10008000D3C00000D1C00000CFC00000CDC0000030
:10009000CBC00000C9C00000C7C00000C5C0000040
:1000A000C3C00000C1C00000BFC00000BDC0000050
:1000B000BBC00000B9C00000B7C0000019C50000F7
:1000C000B3C00000B1C00000AFC00000ADC0000070
:1000D000ABC00000A9C00000A7C00000A5C0000080
:1000E000A3C00000A1C000009FC000009DC0000090
:1000F0009BC0000099C0000097C0000095C00000A0
:1001000093C0000091C000008FC000008DC00000AF
:100110008BC0000089C0000087C0000085C00000BF
:1001200083C0000081C000007FC000007DC00000CF
:100130007BC0000079C0000077C000009DC40000B3
:10014000AAC40000B7C40000C4C400006DC0000011
:100150006BC0000069C0000067C0000065C00000FF
:1001600063C0000061C000005FC000005DC000000F
:100170005BC0000059C0000057C0000055C000001F
:1001800053C0000051C000004FC000004DC000002F
:100190004BC0000049C0000047C0000045C000003F
:1001A00043C0000041C000003FC000003DC000004F
:1001B000AEC4000039C0000037C0000035C00000E8
:1001C00033C0000031C000002FC000002DC000006F
:1001D0002BC0000029C0000027C0000025C000007F
:1001E00023C0000021C000001FC000001DC000008F
:1001F0001BC0000019C0000017C0000011241FBE62
:10020000CFEFCDBFDFE3DEBF00E00CBF18BE19BEED
:100210001ABE1BBE20E2A0E0B0E201C01D92A533D1
:10022000B207E1F7B7D492C5EBCE009769F020E0B2
:1002300030E0EFE3FFE13197F1F700C000002F5FFE
:100240003F4F28173907A9F70895E0E0F1E08481CE
:100250008111FDCFE0E0F1E080818F7780838081A4
:1002600080648083168A85EA808B82E0848B158A7D
:1002700085E5828B8091260990912709892B21F0B1
:1002800082E68093130103C082E480931301E0E0CF
:10029000F1E088E6808F88E0818F128E90E6948F5F
:1002A000858F168E16A281EA80A382E084A315A210
:1002B00085E582A38091260990912709892B21F059
:1002C00080E88093230109C0809126099091270935
:1002D000892B19F483E480932301E0E0F1E088E6C0
:1002E00080A789E081A712A690E694A785A716A605
:1002F00016AA81EA80AB82E084AB15AA85E582ABC1
:100300008091260990912709892B21F080EA80931A
:10031000330109C08091260990912709892B19F48E
:1003200084E480933301E0E0F1E088E680AF8AE086
:1003300081AF12AE90E694AF80933D0110923E01E2
:100340001092460181EA8093400182E0809344014B
:100350001092450185E5809342018091010988232F
:1003600024F485E68093430107C080910108882327
:100370001CF485E48093430188E6809348018BE078
:100380008093490110924A0190E690934C0180932A
:100390004D0110924E0183E8809300010895CF93A0
:1003A000DF93CDB7DEB72C97CDBFDEBF69877A87E5
:1003B0008B879C8719821A821B821C821D821E8257
:1003C0001F82188689859A85AB85BC85880F991F01
:1003D000AA1FBB1F880F991FAA1FBB1F880F991F39
:1003E000AA1FBB1F880F991FAA1FBB1F880F991F29
:1003F000AA1FBB1F89839A83AB83BC8389819A819F
:10040000AB81BC810097A140B10558F069817A8128
:100410008B819C812FEF3FEF40E050E010D42D8383
:100420003E8369817A818B819C812D813E812F5F02
:100430003F4F40E050E003D42F8338878F81988569
:10044000E0E0F8E086A397A310922609109227090E
:100450008081807F8160808386A197A180A791A7FA
:1004600081818061818387818360878388E0818740
:100470008D819E81892B59F18D819E81E0E0F9E08B
:1004800086A397A3A0E8B1E08C91806C8C938081C7
:10049000807F886080831682A0E0B8E011968C91FE
:1004A00011978F7E11968C93119717968C911797B1
:1004B0008C7F17968C9386A197A180A791A78181A5
:1004C0008061818387818360878388E0818740E8BA
:1004D00051E0FA018181856C8183A0E0BAE08C91C2
:1004E000807F89608C9320E039E0F90186A197A193
:1004F00096968D939C93979793E016969C93169758
:10050000FA018281866C828360E07BE0FB0180815E
:10051000807F8A608083F90146A157A1FB0146A331
:1005200057A3968388E080930908F901818719967B
:100530008C93FB01818789DE2C96CDBFDEBFDF91D6
:10054000CF9108950F931F93CF93DF93CDB7DEB76D
:100550002597CDBFDEBF962FBA01A901440F551FC5
:10056000661F771F440F551F661F771F440F551FC7
:10057000661F771F440F551F661F771F440F551FB7
:10058000661F771F49835A836B837C8349815A8115
:100590006B817C81411551056140710540F0A92FA7
:1005A000B0E0B75FE7E0F9E041E059E007C0A92F0C
:1005B000B0E0B85FE7E0F8E041E058E009811A8177
:1005C0002B813C810D931C93DA012D913C91119765
:1005D000282B2D933C938DEC989F812D112482958F
:1005E00086958770B8E28B9F9019112423E030E044
:1005F000A90102C0440F551F9A95E2F74D832D8142
:1006000080819181822B808391831FDE2596CDBFCF
:10061000DEBFDF91CF911F910F9108954EEF5FEFF5
:1006200040936608509367082FEF3FEF20936808C8
:1006300030936908E4E5F6E08081918180648083ED
:100640009183E0E4F8E080819181846080839183EC
:10065000A1E4B8E08D919C91119783618D939C9357
:10066000A3E4B8E08D919C9111971D921C9288E0B3
:1006700081874093660950936709209368093093F6
:100680006909A4E7B6E06D917C91119760646D9360
:100690007C93A0E4B9E06D917C91119764606D93B7
:1006A0007C93A1E4B9E06D917C91119763616D93A6
:1006B0007C93A3E4B9E06D917C9111971D921C92FB
:1006C00081874093660A5093670A2093680A3093A3
:1006D000690AA4E9B6E06D917C91119760646D930D
:1006E0007C93A0E4BAE06D917C91119764606D9366
:1006F0007C93A1E4BAE06D917C91119763616D9355
:100700007C93A3E4BAE06D917C9111971D921C92A9
:1007100081874093660B5093670B2093680B30934F
:10072000690BA4EBB6E02D913C91119720642D93B9
:100730003C93A0E4BBE02D913C91119724602D9354
:100740003C93A1E4BBE02D913C91119723612D9343
:100750003C93A3E4BBE02D913C9111971D921C9218
:1007600081870895CF93DF931F921F92CDB7DEB795
:1007700049835A8329813A81220F331F220F331F65
:1007800020953095FC012083318321503109FB01F4
:10079000208331830F900F90DF91CF910895E0E493
:1007A000F6E088E0818384E08283E0EAF8E083E099
:1007B00085838CE0868380E4878383818061838363
:1007C0008481806184838481886084830895CF9349
:1007D000DF93CDB7DEB72C97CDBFDEBFFC018481A0
:1007E0009581A681B78189839A83AB83BC838085F9
:1007F0009185A285B3858D839E83AF83B8878485D9
:100800009585A685B78589879A87AB87BC87298117
:100810003A814B815C816AE280E294DE2D813E81E7
:100820004F8158856CE280E48DDE29853A854B85C1
:100830005C856EE280E886DE2C96CDBFDEBFDF9160
:10084000CF910895E0E0F8E08081807F8083E0E050
:10085000F9E08081807F80830895CF93DF93EC015E
:100860004C815D8166E679E088E699E07BDF48852A
:10087000598566E67AE088E69AE074DF4C855D8506
:1008800066E67BE088E69BE06DDFDF91CF9108951F
:10089000EF92FF920F931F93CF93DF93CDB7DEB705
:1008A0006297CDBFDEBF8CE290E0898B9A8BE0EA45
:1008B000F8E083811382BE016F5E7F4F83E090E298
:1008C00006D2FC01F0808E010B5F1F4F07C0D9D10B
:1008D000F80161937193819391938F01BE016F5ED3
:1008E0007F4F80E090E0F3D1009789F7F4E5FF16A1
:1008F000F1F0FF153CF08DE4F81659F0E2E5FE1634
:1009000081F01FC0F7E5FF16B1F088E5F816B9F0E1
:1009100018C04D815E8166E678E088E698E022DFC7
:1009200031C06D817E818F81988539DD2BC0CE01EC
:1009300001964DDF27C0CE0101968FDF23C082DFF5
:1009400021C01AE00F2EF0E8EF2EF6E0FF2EF02D7A
:100950000FEFF701148284E190E067DCF701048374
:1009600084E190E062DC1150A1F70CC01192E8170D
:10097000F907E1F710920220E0EAF8E08381806154
:10098000838305C0E3E0F0E286E390E2EFCF629676
:10099000CDBFDEBFDF91CF911F910F91FF90EF9000
:1009A00008958093A008982F9095909384068D3099
:1009B00029F48AE08093A0086BCF0895E09102208B
:1009C000F0E0ED5FFF4D8083809102208F5F809388
:1009D0000220089588ED84BFE0E5F0E08081826028
:1009E0008083818181FFFDCF88ED84BF91E090936A
:1009F000400084BFE0E5F0E080818A7E8083089536
:100A00001F920F920FB60F92112408B60F9218BEC4
:100A10000F9008BE0F900FBE0F901F9018951F9259
:100A20000F920FB60F92112408B60F9218BE0F90B6
:100A300008BE0F900FBE0F901F9018951F920F9237
:100A40000FB60F92112408B60F9218BE0F9008BE71
:100A50000F900FBE0F901F9018951F920F920FB618
:100A60000F92112408B60F9218BE0F9008BE0F9077
:100A70000FBE0F901F9018951F920F920FB60F92F6
:100A8000112408B60F9218BE0F9008BE0F900FBE2B
:100A90000F901F9018951F920F920FB60F9211246E
:100AA00008B60F9218BE0F9008BE0F900FBE0F90A1
:100AB0001F9018951F920F920FB60F92112408B62F
:100AC0000F9218BE0F9008BE0F900FBE0F901F9090
:100AD00018951F920F920FB60F92112408B60F921D
:100AE00018BE0F9008BE0F900FBE0F901F90189564
:100AF0001F920F920FB60F92112408B60F9218BED4
:100B00000F9008BE0F900FBE0F901F9018951F9268
:100B10000F920FB60F92112408B60F9218BE0F90C5
:100B200008BE0F900FBE0F901F9018951F920F9246
:100B30000FB60F92112408B60F9218BE09B60F9285
:100B400019BE0BB60F921BBE2F933F934F935F932B
:100B50006F937F938F939F93AF93BF93EF93FF9385
:100B60008091A0081EDFFF91EF91BF91AF919F91FF
:100B70008F917F916F915F914F913F912F910F9046
:100B80000BBE0F9009BE0F9008BE0F900FBE0F90C6
:100B90001F901895F894E0E4F6E08FEF80831482BC
:100BA000E0E6F6E080831482E0EAF6E080831482D7
:100BB00011DF68E273E280E090E0F1DB2AE030E0F0
:100BC00040E050E06AE280E2BDDC24E130E040E059
:100BD00050E06CE280E4B6DC2EE130E040E050E032
:100BE0006EE280E8AFDC1ADD48EC50E066E678E0C3
:100BF00088E698E0B7DD48EC50E066E679E088E604
:100C000099E0B0DD48EC50E066E67AE088E69AE0EC
:100C1000A9DD48EC50E066E67BE088E69BE0A2DDDB
:100C2000BEDD13DBE0EAF0E08281846082838281B2
:100C3000826082838281816082837894FFCFA1E287
:100C40001A2EAA1BBB1BFD010DC0AA1FBB1FEE1F46
:100C5000FF1FA217B307E407F50720F0A21BB30B91
:100C6000E40BF50B661F771F881F991F1A9469F70D
:100C700060957095809590959B01AC01BD01CF0169
:100C800008951F93FC0199278827BC01E8941191CE
:100C90001032E9F3193010F01E30C8F31B3249F05E
:100CA0001D3241F4689405C03CD0610F711D811D57
:100CB000911D119110531A30B8F33EF49095809520
:100CC000709561957F4F8F4F9F4F1F91089540E022
:100CD00050E200C0FA01A191B081009719F4109779
:100CE000E1F0CD01DC01CD010D90002011F4C00137
:100CF00013C0FB012191222319F02015D9F7F3CF5E
:100D0000FB012191201519F41E92119606C0222391
:100D1000C1F70D900020A1F7D001FA01A193B08393
:100D20000895592F482F372F262F660F771F881FBA
:100D3000991F660F771F881F991F620F731F841FEB
:100D4000951F660F771F881F991F0895F894FFCF8E
:00000001FF
